:0400000055EF00F0C8
:10000800FACF1EF0FBCF1FF0E9CF20F0EACF21F0A6
:10001800E1CF22F0E2CF23F0D9CF24F0DACF25F0D8
:10002800F3CF26F0F4CF27F0F6CF28F0F7CF29F05A
:10003800F8CF2AF0F5CF2BF09EAA03D0AECF8AF0E6
:100048004586A4AA03D074CF36F04588F2A203D01F
:10005800F1AC459AF292F2B445A206D09EEC0EF0AD
:1000680052EC0DF0F29400D02BC0F5FF2AC0F8FF37
:1000780029C0F7FF28C0F6FF27C0F4FF26C0F3FF0A
:1000880025C0DAFF24C0D9FF23C0E2FF22C0E1FF68
:1000980021C0EAFF20C0E9FF1FC0FBFF1EC0FAFF16
:0600A80011009DEF0DF0B8
:100600000053746F7020475053202020202020205A
:100610002000537461727420475053202020202002
:10062000202000496E697469616C697A696E67207F
:100630002020200057616974696E6720666F722000
:10064000434D442000506F736974696F6E696E6723
:1006500020416E672000436F6D7072657373696E21
:1006600067204169722000446F6E652120202020A0
:10067000202020200054494D453A000000018051BF
:100680000001951912E100018151000196190DE157
:10069000000182510001971908E100018351000116
:1006A0009819D8A402D000F084D10001955100011E
:1006B000805D0001965100018159000197510001B0
:1006C00082590001985100018359D8B0B0D080C040
:1006D00099F081C09AF082C09BF083C09CF0000129
:1006E000991F9A1F9B1F9C1F992B000E9A239B23D7
:1006F0009C23000195510001992500019D6F000187
:10070000965100019A2100019E6F0001975100014E
:100710009B2100019F6F0001985100019C21000165
:10072000A06F95C0A1F096C0A2F097C0A3F098C0AA
:10073000A4F00001A11FA21FA31FA41FA12B000E44
:10074000A223A323A423000180510001A1250001BD
:10075000A56F000181510001A2210001A66F0001D7
:1007600082510001A3210001A76F00018351000104
:10077000A4210001A86F100E0001A5250001A96F9A
:100780000E0E0001A6210001AA6F000E0001A72194
:100790000001AB6F000E0001A8210001AC6F000149
:1007A0009D510001A95D00019E510001AA5900015F
:1007B0009F510001AB590001A0510001AC59D8B0C4
:1007C0001ED095C099F096C09AF00001991F9A1F0B
:1007D000994B9A2B0001805100019927000181510A
:1007E00000019A23100E000199250001936F0E0E4F
:1007F00000019A210001946F63EC06F0DAD080C00A
:1008000099F081C09AF00001991F9A1F994B9A2B79
:1008100000019551000199250001936F0001965147
:1008200000019A210001946FD1EC05F0C2D00001C3
:1008300080510001955D0001815100019659000130
:100840008251000197590001835100019859D8B095
:10085000B0D095C099F096C09AF097C09BF098C020
:100860009CF00001991F9A1F9B1F9C1F992B000E43
:100870009A239B239C2300018051000199250001AC
:100880009D6F0001815100019A2100019E6F0001BE
:10089000825100019B2100019F6F000183510001E3
:1008A0009C210001A06F80C0A1F081C0A2F082C095
:1008B000A3F083C0A4F00001A11FA21FA31FA41FC7
:1008C000A12B000EA223A323A42300019551000114
:1008D000A1250001A56F000196510001A221000190
:1008E000A66F000197510001A3210001A76F00012D
:1008F00098510001A4210001A86F100E0001A52548
:100900000001A96F0E0E0001A6210001AA6F000EC2
:100910000001A7210001AB6F000E0001A82100011A
:10092000AC6F00019D510001A95D00019E510001C5
:10093000AA5900019F510001AB590001A0510001CB
:10094000AC59D8B01ED080C099F081C09AF0000197
:10095000991F9A1F994B9A2B0001955100019927D5
:100960000001965100019A23100E00019925000103
:10097000936F0E0E00019A210001946FD1EC05F0E7
:1009800018D095C099F096C09AF00001991F9A1F4F
:10099000994B9A2B00018051000199250001936F1A
:1009A0000001815100019A210001946F63EC06F06F
:1009B00000D095C080F096C081F097C082F098C0BA
:1009C00083F012000001B16F780E0001B119D8B4A4
:1009D0000ED08B0E00018425D96E000E00018521FA
:1009E000DA6EB1C0DFFF0001844B852B1200780E58
:1009F0000001B119D8A41200459CF29E84C086F073
:100A000085C087F00ED08B0E00018625D96E000EB2
:100A100000018721DA6E000EDF6E0001864B872B06
:100A200000D00001875107E1040E0001865DD8B0B7
:100A300002D0E9D700D06AEC0EF0A7EC0EF0450E1C
:100A40000001A06F060E0001A16F100E0001A26F41
:100A50005CEC0AF0ABEC0EF08B0E0001A06F000E08
:100A60000001A16F040E0001A26F5CEC0AF0D00E31
:100A70000001AD6FFF0E0001AE6FD00E00018B259F
:100A800000018F6F0001906BFF0E9023030E000199
:100A9000926FE80E916FD8EC0DF000018E510001BD
:100AA000AF6FB06B00018F510001AF270001905173
:100AB0000001B023D00E00018C2500018F6F0001D2
:100AC000906BFF0E9023000E0001926F640E916FE9
:100AD000D8EC0DF000018F510001AF2700019051BB
:100AE0000001B023D00E00018D2500018F6F0001A1
:100AF000906BFF0E9023000E0001926F0A0E916F13
:100B0000D8EC0DF000018F510001AF27000190518A
:100B10000001B0230001AD510001AF270001AE512B
:100B20000001B023AFC07CF0B0C07DF00001000E2A
:100B30007DBFFF0E7E6F7F6F7CC095F07DC096F00D
:100B40007EC097F07FC098F03EEC03F0640E96EC08
:100B50000EF0640E96EC0EF0640E96EC0EF0640E41
:100B60005DEC0EF0640E0AEC0EF0000E0001856FD5
:100B7000000E846F000E0001876F000E866FF28EEC
:100B80006AEC0EF0A7EC0EF0340E0001A06F060E1A
:100B90000001A16F100E0001A26F5CEC0AF01200C0
:100BA000120032503310D8A403D037C03AF024D00A
:100BB00032043310D8B420D001D01ED0020E321827
:100BC0003310D8B40BD018D009D0000E05D0030EC6
:100BD00003D0020E01D0010E3A6E0ED03850000A3A
:100BE000D8B4F3D7010AD8B4F2D7030AD8B4F1D7EE
:100BF000010AD8B4F0D700D0000E336E010E326E69
:100C000049D0808E809C809A8098FF0E00019325A9
:100C10000001936FFF0E000194210001946F2CECF2
:100C20000CF0010E35D0809E809C809A8088FF0E4B
:100C3000000193250001936FFF0E00019421000134
:100C4000946F2CEC0CF0020E23D0809E809C808A46
:100C50008098FF0E000193250001936FFF0E0001A5
:100C600094210001946F2CEC0CF0030E11D0809EA7
:100C7000808C809A8098FF0E000193250001936F6D
:100C8000FF0E000194210001946F2CEC0CF0000E7B
:100C90003A6E0ED03A50000AD8B4B3D7010AD8B48D
:100CA000C2D7030AD8B4D1D7010AD8B4E0D700D04C
:100CB0000001935100019411D8A4ECD7809E809C30
:100CC000809A8098120032503310D8B40DD0020EA2
:100CD00032183310D8B41FD001D01DD032043310D5
:100CE000D8B40BD018D009D0000E05D0030E03D015
:100CF000020E01D0010E386E0ED03A50000AD8B460
:100D0000F3D7010AD8B4F2D7030AD8B4F1D7010A4D
:100D1000D8B4F0D700D0000E336E020E326E49D038
:100D2000809E809C808A8098FF0E000193250001A0
:100D3000936FFF0E000194210001946F2CEC0CF0D6
:100D4000010E35D0809E809C809A8088FF0E000125
:100D500093250001936FFF0E000194210001946F11
:100D60002CEC0CF0020E23D0808E809C809A809810
:100D7000FF0E000193250001936FFF0E00019421E7
:100D80000001946F2CEC0CF0030E11D0809E808C2F
:100D9000809A8098FF0E000193250001936FFF0E4B
:100DA000000194210001946F2CEC0CF0000E386EC1
:100DB0000ED03850000AD8B4B3D7010AD8B4C2D77D
:100DC000030AD8B4D1D7010AD8B4E0D700D00001C3
:100DD000935100019411D8A4ECD7809E809C809AF6
:100DE00080981200AFEC0EF0750E126E060E136EA8
:100DF000050E146E9BEC0CF03A0E3E6E000E136E58
:100E0000000E126E20EC0EF0000E046E0A0E036E41
:100E100034C001F035C002F080EC09F001C009F0E7
:100E200002C00AF0000E0C6E0A0E0B6EB1EC0BF055
:100E30000950300F3C6E34C009F035C00AF0000E86
:100E40000C6E0A0E0B6EB1EC0BF00950300F3D6EBC
:100E5000000E046E0A0E036E88C01CF089C01DF0DF
:100E60001C1E1D1E1C4A1D2A0A0E1C24016E000E8B
:100E70001D20026E80EC09F001C009F002C00AF0EA
:100E8000000E0C6E0A0E0B6EB1EC0BF00950300F19
:100E90003F6E88C01CF089C01DF01C1E1D1E1C4A20
:100EA0001D2A0A0E1C24096E000E1D200A6E000E5B
:100EB0000C6E0A0E0B6EB1EC0BF00950300F406E49
:100EC0003C0E126E000E136E050E146E9BEC0CF0B1
:100ED0001200ABEC0EF0640E00018F6F000E906FED
:100EE000000E916F000E926F33EC09F030C08FF05E
:100EF00031C090F0030E0001926FE80E916F70EC1C
:100F00000BF000018F51300F416E000E0001926F07
:100F1000640E916F30C08FF031C090F070EC0BF028
:100F20008FC096F090C097F0000E0001996F0A0EE6
:100F3000986F65EC0CF000019651300F426E000E78
:100F40000001926F0A0E916F30C08FF031C090F0A7
:100F500070EC0BF08FC096F090C097F0000E00017F
:100F6000996F0A0E986F65EC0CF000019651300FE6
:100F7000436E30C096F031C097F0000E0001996FBB
:100F80000A0E986F65EC0CF000019651300F446E1C
:100F9000410E0001A06F000E0001A16F040E0001C0
:100FA000A26F5CEC0AF0120000019D6F00019DA988
:100FB00004D000019C6B9C2B02D000019C6B0001B3
:100FC0009C3B8A5000019C19EF0B9C198A6E000112
:100FD0009DAB04D000019C6B9C2B02D000019C6B4C
:100FE00000019C3B9C478A5000019C19DF0B9C1917
:100FF0008A6E00019DAD04D000019C6B9C2B02D039
:1010000000019C6B00019C3B9C479C478A5000015F
:101010009C19BF0B9C198A6E00019DAF04D0000182
:101020009C6B9C2B02D000019C6B00019C339C3379
:101030008A5000019C197F0B9C198A6E8A948A86BB
:101040008A948A948A948A96140E00018F6F000EF7
:10105000906F000E916F000E926F33EC09F012004A
:1010600000019D6F00019DA904D000019C6B9C2B89
:1010700002D000019C6B00019C3B8A5000019C192E
:10108000EF0B9C198A6E00019DAB04D000019C6B94
:101090009C2B02D000019C6B00019C3B9C478A501A
:1010A00000019C19DF0B9C198A6E00019DAD04D0D4
:1010B00000019C6B9C2B02D000019C6B00019C3BAF
:1010C0009C479C478A5000019C19BF0B9C198A6E53
:1010D00000019DAF04D000019C6B9C2B02D000014D
:1010E0009C6B00019C339C338A5000019C197F0B40
:1010F0009C198A6E8A848A868A848A848A848A96DB
:101100000A0E00018F6F000E906F000E916F000E9F
:10111000926F33EC09F012000001936F7BC0ADFFBA
:10112000000E0001956F000E946F000E0001956F88
:10113000000E946F0001955142E11B0E0001945D79
:10114000D8B03DD001D03BD0010E00019425000164
:101150008F6F000E000195210001906F00018F1F1D
:10116000901F8F4B902B1B0E00018F27000E90239A
:10117000600E00018F25D96E000E00019021DA6EFD
:1011800094C091F095C092F00001911F921F914B75
:10119000922B1B0E00019127000E9223600E00017E
:1011A0009125E16E000E00019221E26EDFCFE7FF94
:1011B0000001944B952B0001955101E1BED793C0DE
:1011C00060F01200240E3618D8A406D0000E496E26
:1011D000000E486E45940BD02C0E3618D8A407D0BC
:1011E000010E4824486E000E4920496E00D0495037
:1011F00004E1020E485CD8A00ED049500CE1060E66
:10120000485CD8B008D02C0E3618D8B404D036506C
:101210008CEC08F000D0030E48184910D8B40AD05E
:10122000040E48184910D8B405D0050E48184910C6
:10123000D8A408D02C0E3618D8A404D02C0E8CECD0
:1012400008F000D0060E48184910D8B445B408D0AC
:1012500045840D0E8CEC08F00A0E8CEC08F000D0E2
:10126000A4BAFED71200000E0001946F000E956F15
:10127000000E966F000E976F2AD0000E0001986F37
:10128000000E996F000E9A6F000E9B6F00019BBFBE
:101290000ED000019B5100019A110001991110E13B
:1012A000960E0001985DD8B00BD001D009D0010E88
:1012B00000019827000E99239A239B23E7D700D09B
:1012C000010E00019427000E952396239723000119
:1012D0008F510001945D000190510001955900016A
:1012E00091510001965900019751800A0001936FB6
:1012F00000019251800A00019359D8A0BED7120074
:10130000000E066E04AE07D0036C041ED8B0042A8B
:10131000010E066E00D002AE07D0016C021ED8B0DE
:10132000022A010E061A00D0000E086E000E076E8B
:1013300003500410D8B421D0010E056E05D0D8900A
:1013400003360436052A00D004BE02D0F8D700D0F8
:10135000D890073608360350015C04500258D8A0D4
:1013600006D00350015E0450025A078000D0D89086
:1013700004320332052EECD700D00650D8B405D085
:10138000076C081ED8B0082A00D007C001F008C0BA
:1013900002F012001200458A000E3A6E000E336E03
:1013A000010E326E30D021D0808E809C809A809841
:1013B0002CEC0CF0010E17D0809E809C809A8088C7
:1013C0002CEC0CF0020E0FD0809E809C808A8098BE
:1013D0002CEC0CF0030E07D0809E808C809A8098B5
:1013E0002CEC0CF0000E3A6E0ED03A50000AD8B435
:1013F000DBD7010AD8B4E0D7030AD8B4E5D7010A8D
:10140000D8B4EAD700D045BAF0D7809E809C809AA5
:101410008098F298000E0001856F000E846F000E18
:101420000001876F000E866F12002FD07188ABEC21
:101430000EF0120E0001A06F060E0001A16F100E3B
:101440000001A26F5CEC0AF033D07198ABEC0EF0A7
:10145000010E0001A06F060E0001A16F100E000129
:10146000A26F5CEC0AF024D071B822D0458C20D059
:1014700078EC0DF01DD083EC0EF01AD045AC18D0EE
:1014800000018A51E2EC04F013D000018A51610A94
:10149000D8B4CCD7030AD8B4D8D7060AD8B4EBD777
:1014A000170AD8B4E1D7070AD8B4E2D7E7D700D0F3
:1014B0009EBAFED745961200000E0001A76F000EDF
:1014C000A66F000E0001A96F000EA86F25D00001C5
:1014D000A6510001A0250001A36F0001A751000142
:1014E000A1210001A46FA3C0F6FFA4C0F7FFF86A12
:1014F000050EF76403D00800F55005D0F6CFE9FFDC
:10150000F7CFEAFFEF500AEC0EF00001A64BA72B35
:101510000001A84BA92B00D00001A2510001A36F2C
:10152000A46B0001A3510001A85D0001A951800A2C
:101530000001A56F0001A451800A0001A559D8A09F
:10154000C6D712000F6E0FA803D00E6A0E2A01D064
:101550000E6A0E3A8A500E18EF0B0E188A6E0FAAFA
:1015600003D00E6A0E2A01D00E6A0E3A0E468A5039
:101570000E18DF0B0E188A6E0FAC03D00E6A0E2AFF
:1015800001D00E6A0E3A0E460E468A500E18BF0B58
:101590000E188A6E0FAE03D00E6A0E2A01D00E6AA4
:1015A0000E320E328A500E187F0B0E188A6E8A8405
:1015B0008A868A848A848A848A960A0E016E000E3C
:1015C000026E000E036E000E046EF2EC0BF01200C1
:1015D0000F6E0FA803D00E6A0E2A01D00E6A0E3AC3
:1015E0008A500E18EF0B0E188A6E0FAA03D00E6ADF
:1015F0000E2A01D00E6A0E3A0E468A500E18DF0BE4
:101600000E188A6E0FAC03D00E6A0E2A01D00E6A35
:101610000E3A0E460E468A500E18BF0B0E188A6EF2
:101620000FAE03D00E6A0E2A01D00E6A0E320E32B1
:101630008A500E187F0B0E188A6E8A948A868A94B6
:101640008A948A948A96140E016E000E026E000E21
:10165000036E000E046EF2EC0BF01200000189BF65
:1016600008D00001895107E10A0E0001885DD8B059
:1016700002D08C8012008C90D59EF29A4592000E7A
:101680000001896F000E886FABEC0EF0640E96ECD3
:101690000EF0640E96EC0EF0640E96EC0EF0640EF6
:1016A0005DEC0EF0670E0001A06F060E0001A16F49
:1016B0000D0E0001A26F5CEC0AF02CEC0CF06AEC51
:1016C0000EF0A7EC0EF0340E0001A06F060E000124
:1016D000A16F100E0001A26F5CEC0AF01200120064
:1016E000000E0001956F000E946F000191510001F2
:1016F0009211D8B431D0010E0001936F07D00001D0
:10170000D890913792370001932B00D0000192BFFF
:1017100002D0F5D700D00001D8909437953700015A
:10172000915100018F5D0001925100019059D8A0A4
:101730000BD00001915100018F5F00019251000117
:10174000905B0001948100D00001D89092339133D6
:101750000001932FE0D700D094C08FF095C090F097
:101760001200000E0E6E0AAE07D0096C0A1ED8B029
:101770000A2A010E0E6E00D00CAE05D00B6C0C1EAA
:10178000D8B00C2A00D00B500C10D8B41DD0010ECC
:101790000D6E05D0D8900B360C360D2A00D00CBE3D
:1017A00002D0F8D700D00B50095C0C500A58D8A0D2
:1017B00005D00B50095E0C500A5A00D0D8900C325C
:1017C0000B320D2EF0D700D00E50D8B405D0096CD6
:1017D0000A1ED8B00A2A00D009C009F00AC00AF0CF
:1017E00012001200000E066E000E076E000E086E4C
:1017F000000E096E22D0000E0A6E000E0B6E000E57
:101800000C6E000E0D6E0DBE0AD00D500C100B109C
:101810000EE1960E0A5CD8B00AD001D008D0010EB5
:101820000A26000E0B220C220D22EDD700D0010E4D
:101830000626000E0722082209220150065C0250EB
:101840000758035008580950800A056E0450800A52
:101850000558D8A0D0D71200000E0001906F000EDE
:101860008F6F000E0001926F000E916F000E00014D
:10187000906F000E8F6F000190BF09D00001905152
:1018800023E100018F29D8B0120001D01200000E10
:101890000001926F000E916F000192BF0AD000010B
:1018A00092510DE1070E0001915DD8B008D001D032
:1018B00006D000F00001914B922BEED700D0000132
:1018C0008F4B902BD8D712001200000198510001C5
:1018D0009911D8B42BD0010E00019A6F07D00001E6
:1018E000D8909837993700019A2B00D0000199BF02
:1018F00002D0F5D700D0000198510001965D00019B
:10190000995100019759D8A009D0000198510001C0
:10191000965F000199510001975B00D00001D890BB
:101920009933983300019A2FE6D700D096C096F0ED
:1019300097C097F01200000E196E000E186E000E80
:101940001B6E000E1A6E1DD018501224156E195001
:101950001320166E15C0F6FF16C0F7FFF86A050EC5
:10196000F76403D00800F55005D0F6CFE9FFF7CFB4
:10197000EAFFEF5032EC0EF0184A192A1A4A1B2AD5
:1019800000D01450156E166A15501A5C1B50800A50
:10199000176E1650800A1758D8A0D6D712002AEC16
:1019A0000DF0CBEC09F06AEC0EF0A7EC0EF0340E63
:1019B0000001A06F060E0001A16F100E0001A26FC2
:1019C0005CEC0AF077EC0EF050EC0EF000D045A085
:1019D00005D0BBEC0DF069EC07F000D045A603D0B4
:1019E00015EC0AF000D045A803D0A3EC0EF000D00F
:1019F00045A2EDD72EEC0BF0EAD755EF00F0000E24
:101A0000476E010E466E0A0E00018F6F000E906F3A
:101A1000000E916F000E926F33EC09F09396939441
:101A20009398939A939C939E8A868A848A888A8ABA
:101A30008A8C8A8E020EF4EC0DF0280EF4EC0DF078
:101A40000C0EF4EC0DF0060EF4EC0DF0800EF4EC40
:101A50000DF01200760ED36E000E0F01386F000EDF
:101A60000F01396F000E0F013A6F000E0F013B6F2F
:101A7000010E0F013C6FFFEC0CF06AEC0EF0230E30
:101A80000001A06F060E0001A16F100E0001A26FF1
:101A90005CEC0AF095908C908DEC0EF0F28EF19C3F
:101AA000F28812000001884B892B000189BF10D0F9
:101AB0000001895105E13C0E0001885DD8A008D0E5
:101AC000344A352A000E0001896F000E886F00D05D
:101AD00035BE0BD0355004E13C0E345CD8A005D0A7
:101AE000000E356E000E346E00D0F2EC06F01200DF
:101AF000A7EC0EF0560E0001A06F060E0001A16FBC
:101B0000100E0001A26F5CEC0AF0F294D59CD59AFD
:101B1000D596D580D582D584000E0001896F000E40
:101B2000886F000E356E000E346EC20ED76EF70E43
:101B3000D66EF28A4582D58E120000EE60F02F0E2E
:101B4000EE6AE806FDE1456A00EE2CF0190EEE6A39
:101B5000E806FDE1660EF66E1D0EF76E000EF86EDD
:101B60000900F5CF48F00900F5CF49F0000EF86EF6
:101B70000001CFEF0CF0C28200D0C2B2FED7C3CFBB
:101B80002EF02F6AC4CF8FF0030E00018F170001D3
:101B90008F512C6E2D6A2C500001906F8F6B2E5040
:101BA00000018F25306E2F5000019021316E120000
:101BB00000018F5100019103F3CF93F0F4CF94F023
:101BC00000018F5100019203F3500001942700019E
:101BD000905100019103F3500001942793C08FF0BE
:101BE00094C090F01200120000019E6F00019E51FF
:101BF000F00B00019F6F00019F51D4EC07F0000132
:101C00009E39F00BF00B00019F6F00019F51D4EC47
:101C100007F0120000019E6F00019E51F00B0001C1
:101C20009F6F00019F5130EC08F000019E39F00BCE
:101C3000F00B00019F6F00019F5130EC08F0120083
:101C4000000E156E000E146E06D0140E41EC0EF050
:101C5000144A152A00D01250145C13501558D8A0FD
:101C6000F4D71200106E1050F00B116E1150A2EC50
:101C70000AF01038F00BF00B116E1150A2EC0AF0C4
:101C80001200106E1050F00B116E1150E8EC0AF0BB
:101C90001038F00BF00B116E1150E8EC0AF0120046
:101CA000959C958E190E756E718E728AD09EA38A40
:101CB000A58AF28EF28CD08E12000001906F000186
:101CC000905196EC0EF00D0E96EC0EF00A0E96EC7E
:101CD0000EF012000C0EF4EC0DF0060EF4EC0DF00C
:101CE000800EF4EC0DF0010EF4EC0DF01200949C5B
:101CF000948E190EAF6EAC8AAB8EAB88D09EF28EEE
:101D0000F28C9D8A1200010E966EAF0EC06E050E0B
:101D1000C16E150EC26E458012009298929A929CE6
:101D2000929E8098809A809C809E120000018F6F06
:101D30008FC0ADFF00D09EA8FED71200C20ED76E96
:101D4000F70ED66E1200E2EC08F045981200800EF5
:101D5000F4EC0DF01200C00EF4EC0DF01200C00E09
:081D600041EC0EF01200060038
:020000040020DA
:08000000FFFFFFFFFFFFFFFF00
:020000040030CA
:0E000000FF281F3CFF3F84FF0FC00FE00F40A2
:00000001FF
